{
  "_format": "hh-sol-artifact-1",
  "contractName": "NewsApp",
  "sourceName": "contracts/Post.sol",
  "abi": [
    {
      "anonymous": false,
      "inputs": [
        {
          "indexed": false,
          "internalType": "uint256",
          "name": "postId",
          "type": "uint256"
        },
        {
          "indexed": false,
          "internalType": "string",
          "name": "title",
          "type": "string"
        },
        {
          "indexed": false,
          "internalType": "string",
          "name": "content",
          "type": "string"
        },
        {
          "indexed": false,
          "internalType": "address",
          "name": "author",
          "type": "address"
        },
        {
          "indexed": false,
          "internalType": "uint256",
          "name": "timestamp",
          "type": "uint256"
        }
      ],
      "name": "NewPost",
      "type": "event"
    },
    {
      "inputs": [
        {
          "internalType": "string",
          "name": "_title",
          "type": "string"
        },
        {
          "internalType": "string",
          "name": "_content",
          "type": "string"
        }
      ],
      "name": "createPost",
      "outputs": [],
      "stateMutability": "nonpayable",
      "type": "function"
    },
    {
      "inputs": [
        {
          "internalType": "uint256",
          "name": "_postId",
          "type": "uint256"
        }
      ],
      "name": "getPost",
      "outputs": [
        {
          "internalType": "string",
          "name": "",
          "type": "string"
        },
        {
          "internalType": "string",
          "name": "",
          "type": "string"
        },
        {
          "internalType": "address",
          "name": "",
          "type": "address"
        },
        {
          "internalType": "uint256",
          "name": "",
          "type": "uint256"
        }
      ],
      "stateMutability": "view",
      "type": "function"
    },
    {
      "inputs": [],
      "name": "getPostsCount",
      "outputs": [
        {
          "internalType": "uint256",
          "name": "",
          "type": "uint256"
        }
      ],
      "stateMutability": "view",
      "type": "function"
    },
    {
      "inputs": [
        {
          "internalType": "uint256",
          "name": "",
          "type": "uint256"
        }
      ],
      "name": "posts",
      "outputs": [
        {
          "internalType": "string",
          "name": "title",
          "type": "string"
        },
        {
          "internalType": "string",
          "name": "content",
          "type": "string"
        },
        {
          "internalType": "address",
          "name": "author",
          "type": "address"
        },
        {
          "internalType": "uint256",
          "name": "timestamp",
          "type": "uint256"
        }
      ],
      "stateMutability": "view",
      "type": "function"
    }
  ],
  "bytecode": "0x608060405234801561001057600080fd5b50610dac806100206000396000f3fe608060405234801561001057600080fd5b506004361061004c5760003560e01c80630b1e7f8314610051578063392338f51461008457806340731c24146100a057806383624882146100d3575b600080fd5b61006b60048036038101906100669190610611565b6100f1565b60405161007b949392919061071e565b60405180910390f35b61009e600480360381019061009991906108a6565b610261565b005b6100ba60048036038101906100b59190610611565b610396565b6040516100ca949392919061071e565b60405180910390f35b6100db6105bb565b6040516100e8919061091e565b60405180910390f35b6000818154811061010157600080fd5b906000526020600020906004020160009150905080600001805461012490610968565b80601f016020809104026020016040519081016040528092919081815260200182805461015090610968565b801561019d5780601f106101725761010080835404028352916020019161019d565b820191906000526020600020905b81548152906001019060200180831161018057829003601f168201915b5050505050908060010180546101b290610968565b80601f01602080910402602001604051908101604052809291908181526020018280546101de90610968565b801561022b5780601f106102005761010080835404028352916020019161022b565b820191906000526020600020905b81548152906001019060200180831161020e57829003601f168201915b5050505050908060020160009054906101000a900473ffffffffffffffffffffffffffffffffffffffff16908060030154905084565b600060405180608001604052808481526020018381526020013373ffffffffffffffffffffffffffffffffffffffff16815260200142815250908060018154018082558091505060019003906000526020600020906004020160009091909190915060008201518160000190816102d89190610b45565b5060208201518160010190816102ee9190610b45565b5060408201518160020160006101000a81548173ffffffffffffffffffffffffffffffffffffffff021916908373ffffffffffffffffffffffffffffffffffffffff1602179055506060820151816003015550507f83841ccb3dba17b393398ffd15a4265708ae1f24523221139231e6838795e4f460016000805490506103759190610c46565b8383334260405161038a959493929190610c7a565b60405180910390a15050565b60608060008060008054905085106103e3576040517f08c379a00000000000000000000000000000000000000000000000000000000081526004016103da90610d27565b60405180910390fd5b60008086815481106103f8576103f7610d47565b5b906000526020600020906004020160405180608001604052908160008201805461042190610968565b80601f016020809104026020016040519081016040528092919081815260200182805461044d90610968565b801561049a5780601f1061046f5761010080835404028352916020019161049a565b820191906000526020600020905b81548152906001019060200180831161047d57829003601f168201915b505050505081526020016001820180546104b390610968565b80601f01602080910402602001604051908101604052809291908181526020018280546104df90610968565b801561052c5780601f106105015761010080835404028352916020019161052c565b820191906000526020600020905b81548152906001019060200180831161050f57829003601f168201915b505050505081526020016002820160009054906101000a900473ffffffffffffffffffffffffffffffffffffffff1673ffffffffffffffffffffffffffffffffffffffff1673ffffffffffffffffffffffffffffffffffffffff168152602001600382015481525050905080600001518160200151826040015183606001519450945094509450509193509193565b60008080549050905090565b6000604051905090565b600080fd5b600080fd5b6000819050919050565b6105ee816105db565b81146105f957600080fd5b50565b60008135905061060b816105e5565b92915050565b600060208284031215610627576106266105d1565b5b6000610635848285016105fc565b91505092915050565b600081519050919050565b600082825260208201905092915050565b60005b8381101561067857808201518184015260208101905061065d565b60008484015250505050565b6000601f19601f8301169050919050565b60006106a08261063e565b6106aa8185610649565b93506106ba81856020860161065a565b6106c381610684565b840191505092915050565b600073ffffffffffffffffffffffffffffffffffffffff82169050919050565b60006106f9826106ce565b9050919050565b610709816106ee565b82525050565b610718816105db565b82525050565b600060808201905081810360008301526107388187610695565b9050818103602083015261074c8186610695565b905061075b6040830185610700565b610768606083018461070f565b95945050505050565b600080fd5b600080fd5b7f4e487b7100000000000000000000000000000000000000000000000000000000600052604160045260246000fd5b6107b382610684565b810181811067ffffffffffffffff821117156107d2576107d161077b565b5b80604052505050565b60006107e56105c7565b90506107f182826107aa565b919050565b600067ffffffffffffffff8211156108115761081061077b565b5b61081a82610684565b9050602081019050919050565b82818337600083830152505050565b6000610849610844846107f6565b6107db565b90508281526020810184848401111561086557610864610776565b5b610870848285610827565b509392505050565b600082601f83011261088d5761088c610771565b5b813561089d848260208601610836565b91505092915050565b600080604083850312156108bd576108bc6105d1565b5b600083013567ffffffffffffffff8111156108db576108da6105d6565b5b6108e785828601610878565b925050602083013567ffffffffffffffff811115610908576109076105d6565b5b61091485828601610878565b9150509250929050565b6000602082019050610933600083018461070f565b92915050565b7f4e487b7100000000000000000000000000000000000000000000000000000000600052602260045260246000fd5b6000600282049050600182168061098057607f821691505b60208210810361099357610992610939565b5b50919050565b60008190508160005260206000209050919050565b60006020601f8301049050919050565b600082821b905092915050565b6000600883026109fb7fffffffffffffffffffffffffffffffffffffffffffffffffffffffffffffffff826109be565b610a0586836109be565b95508019841693508086168417925050509392505050565b6000819050919050565b6000610a42610a3d610a38846105db565b610a1d565b6105db565b9050919050565b6000819050919050565b610a5c83610a27565b610a70610a6882610a49565b8484546109cb565b825550505050565b600090565b610a85610a78565b610a90818484610a53565b505050565b5b81811015610ab457610aa9600082610a7d565b600181019050610a96565b5050565b601f821115610af957610aca81610999565b610ad3846109ae565b81016020851015610ae2578190505b610af6610aee856109ae565b830182610a95565b50505b505050565b600082821c905092915050565b6000610b1c60001984600802610afe565b1980831691505092915050565b6000610b358383610b0b565b9150826002028217905092915050565b610b4e8261063e565b67ffffffffffffffff811115610b6757610b6661077b565b5b610b718254610968565b610b7c828285610ab8565b600060209050601f831160018114610baf5760008415610b9d578287015190505b610ba78582610b29565b865550610c0f565b601f198416610bbd86610999565b60005b82811015610be557848901518255600182019150602085019450602081019050610bc0565b86831015610c025784890151610bfe601f891682610b0b565b8355505b6001600288020188555050505b505050505050565b7f4e487b7100000000000000000000000000000000000000000000000000000000600052601160045260246000fd5b6000610c51826105db565b9150610c5c836105db565b9250828203905081811115610c7457610c73610c17565b5b92915050565b600060a082019050610c8f600083018861070f565b8181036020830152610ca18187610695565b90508181036040830152610cb58186610695565b9050610cc46060830185610700565b610cd1608083018461070f565b9695505050505050565b7f506f737420646f6573206e6f742065786973742e000000000000000000000000600082015250565b6000610d11601483610649565b9150610d1c82610cdb565b602082019050919050565b60006020820190508181036000830152610d4081610d04565b9050919050565b7f4e487b7100000000000000000000000000000000000000000000000000000000600052603260045260246000fdfea26469706673582212204e689875041c64d07a75aa7e3e60f41e1cbc92573cd2c88a5bbed6466c593ca264736f6c63430008180033",
  "linkReferences": {},
  "deployedLinkReferences": {}
}